:020000040800F2
:100000000000022015230008FD020008010300087B
:1000100005030008090300080D03000800000000A4
:1000200000000000000000000000000011030008B4
:100030001503000800000000190300081D03000854
:100040005D2300085D2300085D2300085D23000890
:100050005D2300085D2300085D2300085D23000880
:100060005D2300085D2300085D2300085D23000870
:100070005D2300085D2300085D2300085D23000860
:100080005D2300085D2300085D2300085D23000850
:100090005D2300085D2300085D2300085D23000840
:1000A0005D2300085D2300085D2300085D23000830
:1000B0005D2300085D2300085D2300085D23000820
:1000C0005D2300085D2300085D2300085D23000810
:1000D0005D2300085D2300085D2300085D23000800
:1000E0005D2300085D2300085D2300085D230008F0
:1000F0005D2300085D2300085D2300085D230008E0
:100100005D2300085D2300085D2300085D230008CF
:100110005D2300085D2300085D2300085D230008BF
:100120005D2300085D2300085D2300085D230008AF
:100130005D2300085D2300085D2300085D2300089F
:100140005D2300085D2300085D2300085D2300088F
:100150005D2300085D2300085D2300085D2300087F
:100160005D2300085D2300085D2300085D2300086F
:100170005D2300085D2300085D2300085D2300085F
:080180005D2300085D23000867
:1001C00008B5074802F004F9064B1A6812B11A681C
:1001D000013A1A60044A13680133136008BD00BF76
:1001E00084B70008400A0020440A0020704700BF7E
:1001F00030B5012183B0082000F0BAFD4FF47045FE
:100200000023032201246946064800958DF8044026
:100210008DF806308DF807308DF8052000F046FF88
:1002200003B030BD000C02402DE9F047012186B03B
:100230004FF4003000F0C6FD1E4D1F4E0121084650
:1002400000F096FD00244FF00C0828464FF00309FB
:100250004FF0020A01276946CDF800808DF805901D
:100260008DF804A08DF806408DF8077000F01EFF91
:1002700051462846072200F0ABFF07224946284690
:1002800000F0A6FF4FF4E133304602A90293ADF827
:100290000C40ADF80E40ADF81040ADF81440ADF88C
:1002A000128001F00FF83946304601F091F806B09F
:1002B000BDE8F087000002400044004038B50B4B19
:1002C0000B491B680B4A0C4CA1FB03139B09013B18
:1002D000F02500200721536084F8235090601160BE
:1002E000FFF786FFBDE83840FFF79EBF10000020F3
:1002F000D34D621010E000E000ED00E0704700BF59
:10030000FEE700BFFEE700BFFEE700BFFEE700BF5D
:10031000704700BF704700BF704700BFFFF750BF76
:1003200039493A4BD1F88820394842F47002C1F873
:1003300088201A68002142F001021A6099601A6848
:1003400022F0847222F480321A6058601A6882B0F7
:1003500022F480221A60D960009101911A6842F457
:1003600080321A601A4603E0009BB3F5A06F09D0F3
:10037000136803F400330193009B01330093019B46
:10038000002BF1D0214B1B6813F4003318BF01235D
:100390000193019B012B05D01B4B4FF000629A602B
:1003A00002B07047194B1B491A6C1B4842F080522F
:1003B0001A640A6842F480420A609A689A609A68ED
:1003C00042F400429A609A6842F4A0529A605860DF
:1003D0001A6842F080721A601A4611680B4B890144
:1003E000FBD50E4A40F2056111609A6822F00302C3
:1003F0009A609A6842F002029A601A46936803F083
:100400000C03082BFAD1C7E700ED00E000380240EA
:10041000103000240070004008544007003C0240A7
:100420001848836803F00C03042B28D0082B09D04C
:10043000154B144A15499268C2F303128A5CD340E3
:100440000B6170474368416813F4800F436818BF1D
:100450000F4801F03F020CBF0B49B0FBF2F1C3F3B0
:10046000881308BFB1FBF2F101FB03F2054B5B6897
:10047000C3F3014301335B00B2FBF3F3D9E7044B51
:10048000D7E700BF003802400024F400000000203D
:1004900000127A0010B52DED028BB5EEC00A86B0C1
:1004A0000023F1EE10FAB0EE408A0446ADF81430A5
:1004B00006D52D22B1EE408A8DF815308DF8142026
:1004C000B0EE480A0AF00AFB07EE904AF0EE408AC6
:1004D000F8EEE70AB2EE040A0AF048FB78EE688A02
:1004E000F6EE007AE8EE807A01940094BCEEC87AC9
:1004F000FCEEE77A17EE103A05AACDED027A044930
:10050000044801F09BFF034806B0BDEC028B10BD10
:1005100098B70008EC080020E0B9000800000020AF
:10052000EC080020EC0800204C0A0020000000002D
:1005300001F0FF01102A2BDB10F0070F08D010F894
:10054000013B013A8B422DD010F0070F42B3F6D198
:10055000F0B441EA012141EA014122F007047FF0B1
:1005600000070023F0E80256083C85EA010586EA08
:10057000010685FA47F5A3FA87F586FA47F6A5FA44
:1005800087F68EB9EED1F0BC01F0FF0102F0070250
:1005900032B110F8013B013A83EA010313B1F8D1FB
:1005A0000020704701387047002D06BF35460338DC
:1005B000073815F0010F07D1013015F4807F02BF15
:1005C000013015F4C03F0130F0BC0138704700BF66
:1005D000844641EA000313F003036DD1403A41D34E
:1005E00051F8043B40F8043B51F8043B40F8043B0D
:1005F00051F8043B40F8043B51F8043B40F8043BFD
:1006000051F8043B40F8043B51F8043B40F8043BEC
:1006100051F8043B40F8043B51F8043B40F8043BDC
:1006200051F8043B40F8043B51F8043B40F8043BCC
:1006300051F8043B40F8043B51F8043B40F8043BBC
:1006400051F8043B40F8043B51F8043B40F8043BAC
:1006500051F8043B40F8043B51F8043B40F8043B9C
:10066000403ABDD2303211D351F8043B40F8043B3C
:1006700051F8043B40F8043B51F8043B40F8043B7C
:1006800051F8043B40F8043B103AEDD20C3205D34C
:1006900051F8043B40F8043B043AF9D2043208D044
:1006A000D2071CBF11F8013B00F8013B01D30B88B6
:1006B00003806046704700BF082A13D38B078DD094
:1006C00010F003038AD0C3F10403D21ADB071CBF66
:1006D00011F8013B00F8013B80D331F8023B20F8D0
:1006E000023B7BE7043AD9D3013A11F8013B00F809
:1006F000013BF9D20B7803704B7843708B78837091
:10070000604670470000000000000000000000008C
:1007100000000000000000000000000000000000D9
:10072000A2EB0300704700BF02780B78012A28BFB4
:100730009A42F5D16DE9044540EA0104CDE902672A
:100740006FF0000C4FEA447212B380EA010414F017
:10075000070F6AD100F0070420F0070004F003053A
:1007600021F007014FEAC505F0E8042314F0040F57
:10077000F1E804670CFA05F462EA040266EA04068A
:100780000AD063EA0403624667EA0407664603E0A8
:10079000F0E80423F1E8046782FA4CF582EA0604E3
:1007A000A4FA8CF46CBB83FA4CF583EA0705A5FA2E
:1007B0008CF595B950E9022351E9026782FA4CF5AC
:1007C00082EA0604A4FA8CF483FA4CF583EA07055E
:1007D000A5FA8CF52543DBD09CB92DBAB5FA85F482
:1007E00024F0070427FA04F1DDE9026723FA04F391
:1007F00003F0FF0001F0FF01FDE80445A0EB01005C
:10080000704724BAB4FA84F424F0070426FA04F1F9
:10081000DDE9026722FA04F202F0FF0001F0FF01B5
:10082000FDE80445A0EB0100704714F0030F3CD134
:1008300010F0030428D150F8082B51F8083B82FA35
:100840004CF582EA0305A5FA8CF55DB950F8042C45
:1008500051F8043C82FA4CF582EA0305A5FA8CF5BE
:10086000002DE8D02DBAB5FA85F424F0070423FA58
:1008700004F122FA04F202F0FF0001F0FF01FDE8AA
:100880000445A0EB010070474FEAC40420F00300C8
:1008900050F8082B21F0030151F8083B0CFA04F43E
:1008A00062EA040263EA0403C9E710F003041AD001
:1008B000A1EB040120F00300E40750F8042B06D05C
:1008C0000FD28B785FFAA2F4E41A06D12BB1CB7861
:1008D0005FFAB2F4E41A00D11BB920465DF8104B60
:1008E000704701F1040150F8042BCC0721F00301FB
:1008F00051F8043B48D824D222F07F4482FA4CF5C8
:1009000094EA1325A5FA8CF50AD165B951F8043B90
:1009100084EA0204B4EB036F0ED150F8042BEBE72A
:100920004FEA132355E035F07F454DD10878FDE8B7
:100930000445C0F1000070474FEA126203F0FF0364
:1009400047E002EA1C4482FA4CF594EA1345A5FA02
:100950008CF50AD165B951F8043B84EA0204B4EB82
:10096000034F0CD150F8042BEBE74FEA134330E070
:1009700015EA1C4528D10B884FEA124229E04FEABC
:10098000124203EA1C4324E002F0FF0482FA4CF511
:1009900094EA1365A5FA8CF50AD165B951F8043BC0
:1009A00084EA0204B4EB032F09D150F8042BEBE7DF
:1009B0004FEA13630DE015F0FF0F05D10B684FEA06
:1009C000122223F07F4304E04FF00000FDE80445CD
:1009D000704712BA1BBA82FA4CF482EA0304A4FAF2
:1009E0008CF5B5FA85F402FA04F203FA04F34FEA3F
:1009F0001260FDE80445A0EB1360704700000000A2
:100A000090F800F06DE9024520F007016FF0000C4E
:100A100010F0070491F820F040F049804FF00004F6
:100A20006FF00700D1E9002391F840F000F10800D1
:100A300082FA4CF2A4FA8CF283FA4CF3A2FA8CF309
:100A40004BBBD1E9022382FA4CF200F10800A4FA70
:100A50008CF283FA4CF3A2FA8CF3E3B9D1E90423C4
:100A600082FA4CF200F10800A4FA8CF283FA4CF3FB
:100A7000A2FA8CF37BB9D1E9062301F1200182FAB5
:100A80004CF200F10800A4FA8CF283FA4CF3A2FABB
:100A90008CF3002BC6D0002A04BF04301A4612BAC9
:100AA000B2FA82F2FDE8024500EBD2007047D1E9CC
:100AB000002304F00305C4F100004FEAC50514F05B
:100AC000040F91F840F00CFA05F562EA05021CBF2C
:100AD00063EA050362464FF00004A9E70A4B0B489E
:100AE0001A68002142F001021A6099601A6822F027
:100AF000847222F480321A6058601A6822F48022CC
:100B00001A60D960704700BF0038024010300024DE
:100B1000024B00221A701870704700BF0238024062
:100B200082B000230A4A019302E0B3F5A06F08D017
:100B3000136813F4003F019B03F101030193019B30
:100B4000F3D0034B1868C0F3404002B0704700BFB9
:100B500000380240034A136823F0F80343EAC00058
:100B60001060704700380240014B1860704700BFAA
:100B700000004742064B002201281A701A7005D067
:100B8000042802D105221A70704770471870704708
:100B900070380240014B1860704700BF800E47421A
:100BA00030B4029C064D40EA046001435B08013BFF
:100BB00041EA821242EA0340686030BC704700BFDD
:100BC00000380240014B1860704700BF6000474288
:100BD0000907034B41EA8010C3F88400704700BF47
:100BE00000380240014B1860704700BF6800474260
:100BF000014B1860704700BF4C004742034A93689E
:100C000023F0EC63194308439060704700380240BA
:100C1000034A936823F07843194308439060704770
:100C200000380240034A936823F00303184390609E
:100C3000704700BF00380240024B986800F00C007B
:100C4000704700BF00380240034A936823F0F00366
:100C500018439060704700BF00380240034A936811
:100C600023F4E05318439060704700BF00380240FF
:100C7000034A936823F4604343EAC00090607047DE
:100C80000038024010B4214CA36803F00C03042B7D
:100C90001BD0082B1CD01E4B03601C4A1D499468B6
:100CA000C4F303140C5DE34043609468C4F38224EE
:100CB0000C5D23FA04F4846092685DF8044BC2F37F
:100CC00042328A5CD340C3607047134B0360E4E751
:100CD0006368616813F4800F636818BF0E4C01F0FD
:100CE0003F020CBF0A49B4FBF2F1C3F3881308BFFB
:100CF000B1FBF2F101FB03F2044B5B68C3F3014368
:100D000001335B00B2FBF3F30360C6E70038024037
:100D10000024F4001400002000127A0000F4407354
:100D2000B3F5407F09D108498B6820F0704223F465
:100D3000F81322F4407213438B60034A136FC0F31D
:100D40000B0018431067704700380240014B1860D1
:100D5000704700BF3C0E4742014B1860704700BF10
:100D6000400E4742014B1860704700BF5C0147428C
:100D700029B9054A136B23EA000010637047024B40
:100D80001A6B1043186370470038024029B9054AAE
:100D9000536B23EA000050637047024B5A6B1043B9
:100DA000586370470038024029B9054A936B23EA1B
:100DB000000090637047024B9A6B10439863704732
:100DC0000038024029B9054A136C23EA0000106478
:100DD0007047024B1A6C1043186470470038024089
:100DE00029B9054A536C23EA000050647047024B4E
:100DF0005A6C1043586470470038024029B9054ABC
:100E0000136923EA000010617047024B1A6910430E
:100E1000186170470038024029B9054A536923EA2E
:100E2000000050617047024B5A6910435861704787
:100E30000038024029B9054A936923EA000090610D
:100E40007047024B9A69104398617047003802401E
:100E500029B9054A136A23EA000010627047024B61
:100E60001A6A1043186270470038024029B9054ACF
:100E7000536A23EA000050627047024B5A6A1043DB
:100E8000586270470038024029B9054A136D23EAB9
:100E9000000010657047024B1A6D104318657047CB
:100EA0000038024029B9054A536D23EA0000506515
:100EB0007047024B5A6D1043586570470038024026
:100EC00029B9054A936D23EA000090657047024BEB
:100ED0009A6D1043986570470038024029B9054A59
:100EE000136E23EA000010667047024B1A6E10431F
:100EF000186670470038024029B9054A536E23EA44
:100F0000000050667047024B5A6E10435866704797
:100F10000038024029B9054A137823EA000010700E
:100F20007047024B1A781043187070470D38024012
:100F30004309012B0BD0022B094B0CBF1B6F5B6FBE
:100F400000F01F0023FA00F000F001007047044B8E
:100F50001B6800F01F0023FA00F000F0010070474A
:100F600000380240024A536F43F080735367704762
:100F700000380240034BDB68184214BF01200020F8
:100F8000704700BF00380240014B1870704700BF27
:100F90000E38024008B53C4B984224D03B4B984257
:100FA0002BD03B4B984232D03A4B984239D03A4BF7
:100FB000984240D0394B984247D0394B98424ED056
:100FC000384B984255D0384B984200D008BD01218B
:100FD0004FF48070FFF712FF00214FF48070BDE8DE
:100FE0000840FFF70BBF01210846FFF707FF00216C
:100FF0000120BDE80840FFF701BF01210220FFF7F3
:10100000FDFE00210220BDE80840FFF7F7BE0121E8
:101010000420FFF7F3FE00210420BDE80840FFF79D
:10102000EDBE01210820FFF7E9FE00210820BDE800
:101030000840FFF7E3BE01211020FFF7DFFE00218B
:101040001020BDE80840FFF7D9BE01212020FFF79E
:10105000D5FE00212020BDE80840FFF7CFBE0121CA
:101060004020FFF7CBFE00214020BDE80840FFF7FD
:10107000C5BE01218020FFF7C1FE00218020BDE810
:101080000840FFF7BBBE00BF000002400004024062
:1010900000080240000C0240001002400014024010
:1010A00000180240001C02400020024000222DE9EE
:1010B000F0471346D1F800E001274FF0030C04E09D
:1010C0000133102B02F1020229D007FA03F434EAAB
:1010D0000E05F5D1D0F800800E790CFA02F5ED433B
:1010E00008EA0508C0F80080D0F8009006FA02FA75
:1010F000013E4AEA0909012E0CFA02F8C0F80090F4
:101100000FD9C568CC7925EA0805C560C568944043
:1011100001332C43102BC46002F10202D5D1BDE88B
:10112000F087866891F805903540856086688D79EE
:1011300009FA02F949EA06068660466826EA0404C6
:101140004460466805FA03F4A4B234434460D8E727
:1011500000234FF6FF720260037143718371C37104
:10116000704700BF82B04FF480330193019B0B4363
:101170000193019BC361C161019BC361C369019379
:10118000C369019302B070470369194214BF01207B
:1011900000207047006980B2704700BF4369194260
:1011A00014BF012000207047406980B2704700BF23
:1011B00001837047418370470AB9418370470183B7
:1011C000704700BF416170474369594041617047B2
:1011D000CB0800EB830001F0070110B48900046A1A
:1011E0000F238B4024EA03030362036A5DF8044B78
:1011F0008A4042EA03010162704700BF08B52B4BE9
:10120000984219D02A4B984220D02A4B984229D094
:10121000294B984232D0294B98423BD0284B9842D8
:1012200000D008BD01212020FFF720FE0021202052
:10123000BDE80840FFF71ABE01211020FFF716FE97
:1012400000211020BDE80840FFF710BE01214FF437
:101250000030FFF7FDFD00214FF40030BDE80840ED
:10126000FFF7F6BD01214FF48020FFF7F1FD0021CB
:101270004FF48020BDE80840FFF7EABD01214FF49C
:101280000020FFF7E5FD00214FF40020BDE80840F5
:10129000FFF7DEBD01214FF48010FFF7D9FD0021DB
:1012A0004FF48010BDE80840FFF7D2BD00100140A8
:1012B0000044004000480040004C00400050004006
:1012C00000140140028A0B89F0B592B2CF888E8853
:1012D000044622F440523A4348890D4689892282C5
:1012E000A289334392B2034322F4B05222F00C029B
:1012F0009BB21343A381A38A9BB223F440730B4395
:1013000085B0A3826846FFF7BDFC1D4B9C4228D0E8
:1013100003F580639C4224D0029AA389A18913F427
:10132000004F2B6802EB820214BF5B009B0002EBB4
:101330008202B2FBF3F0134AA2FB00356D0964236D
:10134000090405FB13034FEA05150CD41B013233C6
:10135000A2FB0323C3F343132B439BB2238105B0AA
:10136000F0BD039AD9E7D9003231A2FB0131C1F3B4
:10137000421242EA05039BB2238105B0F0BD00BFD3
:10138000001001401F85EB5100234FF416510C2231
:10139000016042818380C38003818381704700BFE5
:1013A00030B44A880D888C88038AC9882A4322432E
:1013B0000A439BB292B223F470631343038230BC9E
:1013C000704700BF0023038043808380C380704741
:1013D000838929B923F400531B041B0C83817047B4
:1013E0009BB243F400538381704700BF038B03F427
:1013F0007F430383038B9BB219430183704700BF74
:10140000838919B9C3F30E03838170476FEA43439D
:101410006FEA53439BB28381704700BF838A29B927
:1014200023F400631B041B0C838270479BB243F4BC
:1014300000638382704700BFC1F308018180704759
:101440008088C0F308007047038A23F00F031B0451
:101450001B0C0382038A9BB219430182704700BFB1
:10146000838929B923F002031B041B0C8381704775
:101470009BB243F002038381704700BF838923F44A
:1014800000631B041B0C838183899BB219438181F8
:10149000704700BF038A23F020031B041B0C038248
:1014A000038A9BB219430182704700BF038A29B99E
:1014B00023F480431B041B0C038270479BB243F44C
:1014C00080430382704700BF83899BB243F00103CE
:1014D00083817047838A29B923F008031B041B0CFE
:1014E000838270479BB243F008038382704700BF3A
:1014F000038BDBB20383038B9BB243EA012101839D
:10150000704700BF838A29B923F020031B041B0CFA
:10151000838270479BB243F020038382704700BFF1
:10152000838A29B923F010031B041B0C83827047A4
:101530009BB243F010038382704700BF838A23F07D
:1015400004031B041B0C8382838A9BB21943818290
:10155000704700BF838A29B923F002031B041B0CC8
:10156000838270479BB243F002038382704700BFBF
:10157000838A9BB21AB923EA010181827047194319
:101580008182704710B401F01F04C1F3421101239E
:10159000012903FA04F311D002290CBF10301430D2
:1015A00032B902685DF8044B22EA03030360704716
:1015B00002685DF8044B1343036070470C30EFE79B
:1015C0000388194214BF012000207047C94389B223
:1015D00001807047C1F3421210B4012301F01F04CF
:1015E000012A03FA04F317D0022A0CBF028A828A66
:1015F00092B21340028892B253B10123090A03FA4E
:1016000001F10A4214BF184600205DF8044B7047F0
:1016100018465DF8044B7047828992B21340E9E79F
:10162000090A012303FA01F1C94389B20180704715
:1016300081F0004102E000BF83F0004330B54FEA83
:1016400041044FEA430594EA050F08BF90EA020FF0
:101650001FBF54EA000C55EA020C7FEA645C7FEA83
:10166000655C00F0E2804FEA5454D4EB5555B8BFA6
:101670006D420CDD2C4480EA020281EA030382EA17
:10168000000083EA010180EA020281EA0303362DA9
:1016900088BF30BD11F0004F4FEA01314FF4801C7C
:1016A0004CEA113102D0404261EB410113F0004F8E
:1016B0004FEA03334CEA133302D0524263EB430345
:1016C00094EA050F00F0A780A4F10104D5F1200EE3
:1016D0000DDB02FA0EFC22FA05F2801841F100013E
:1016E00003FA0EF2801843FA05F359410EE0A5F112
:1016F00020050EF1200E012A03FA0EFC28BF4CF043
:10170000020C43FA05F3C01851EBE37101F00045F8
:1017100007D54FF0000EDCF1000C7EEB00006EEB05
:101720000101B1F5801F1BD3B1F5001F0CD349088F
:101730005FEA30004FEA3C0C04F101044FEA4452E6
:1017400012F5800F80F09A80BCF1004F08BF5FEA6D
:10175000500C50F1000041EB045141EA050130BD4D
:101760005FEA4C0C404141EB010111F4801FA4F1F0
:101770000104E9D191F0000F04BF01460020B1FA45
:1017800081F308BF2033A3F10B03B3F120020CDA7D
:101790000C3208DD02F1140CC2F10C0201FA0CF05B
:1017A00021FA02F10CE002F11402D8BFC2F1200CC0
:1017B00001FA02F120FA0CFCDCBF41EA0C01904076
:1017C000E41AA2BF01EB0451294330BD6FEA0404BF
:1017D0001F3C1CDA0C340EDC04F11404C4F12002AA
:1017E00020FA04F001FA02F340EA030021FA04F3BC
:1017F00045EA030130BDC4F10C04C4F1200220FA13
:1018000002F001FA04F340EA0300294630BD21FA50
:1018100004F0294630BD94F0000F83F4801306BF16
:1018200081F480110134013D4EE77FEA645C18BF0A
:101830007FEA655C29D094EA050F08BF90EA020FA1
:1018400005D054EA000C04BF1946104630BD91EA99
:10185000030F1EBF0021002030BD5FEA545C05D19C
:101860004000494128BF41F0004130BD14F58004DB
:101870003CBF01F5801130BD01F0004545F0FE414F
:1018800041F470014FF0000030BD7FEA645C1ABF84
:10189000194610467FEA655C1CBF0B46024650EABB
:1018A000013406BF52EA033591EA030F41F40021E7
:1018B00030BD00BF90F0000F04BF0021704730B56D
:1018C0004FF4806404F132044FF000054FF0000142
:1018D00050E700BF90F0000F04BF0021704730B503
:1018E0004FF4806404F1320410F0004548BF4042D8
:1018F0004FF000013EE700BF42004FEAE2014FEA2D
:1019000031014FEA02701FBF12F07F4393F07F4F07
:1019100081F06051704792F0000F14BF93F07F4F39
:10192000704730B54FF4607401F0004521F000417C
:1019300020E700BF50EA010208BF704730B54FF002
:1019400000050AE050EA010208BF704730B511F007
:10195000004502D5404261EB41014FF4806404F13F
:1019600032045FEA915C3FF4DCAE4FF003025FEAC1
:10197000DC0C18BF03325FEADC0C18BF033202EB49
:10198000DC02C2F1200300FA03FC20FA02F001FAA3
:1019900003FE40EA0E0021FA02F11444C1E600BF42
:1019A00070B54FF0FF0C4CF4E06C1CEA11541DBFF5
:1019B0001CEA135594EA0C0F95EA0C0F00F0DEF8C0
:1019C0002C4481EA030621EA4C5123EA4C5350EAA5
:1019D000013518BF52EA033541F4801143F48013F6
:1019E00038D0A0FB02CE4FF00005E1FB02E506F087
:1019F0000042E0FB03E54FF00006E1FB03569CF0DC
:101A0000000F18BF4EF0010EA4F1FF04B6F5007FE1
:101A100064F5407404D25FEA4E0E6D4146EB060653
:101A200042EAC62141EA55514FEAC52040EA5E50DC
:101A30004FEACE2EB4F1FD0C88BFBCF5E06F1ED886
:101A4000BEF1004F08BF5FEA500E50F1000041EBBD
:101A5000045170BD06F0004646EA010140EA02006A
:101A600081EA0301B4EB5C04C2BFD4EB0C0541EA8C
:101A7000045170BD41F480114FF0000E013C00F3A1
:101A8000AB8014F1360FDEBF002001F0004170BDC5
:101A9000C4F10004203C35DA0C341BDC04F11404DE
:101AA000C4F1200500FA05F320FA04F001FA05F26A
:101AB00040EA020001F0004221F0004110EBD37037
:101AC00021FA04F642EB06015EEA430E08BF20EA63
:101AD000D37070BDC4F10C04C4F1200500FA04F306
:101AE00020FA05F001FA04F240EA020001F0004198
:101AF00010EBD37041F100015EEA430E08BF20EA0B
:101B0000D37070BDC4F1200500FA05F24EEA020E52
:101B100020FA04F301FA05F243EA020321FA04F081
:101B200001F0004121FA04F220EA020000EBD37038
:101B30005EEA430E08BF20EAD37070BD94F0000F38
:101B40000FD101F00046400041EB010111F4801F6C
:101B500008BF013CF7D041EA060195F0000F18BF1D
:101B6000704703F00046520043EB030313F4801F59
:101B700008BF013DF7D043EA0603704794EA0C0F13
:101B80000CEA135518BF95EA0C0F0CD050EA410629
:101B900018BF52EA4306D1D181EA030101F00041A6
:101BA0004FF0000070BD50EA410606BF10461946CE
:101BB00052EA430619D094EA0C0F02D150EA0136DA
:101BC00013D195EA0C0F05D152EA03361CBF10461B
:101BD00019460AD181EA030101F0004141F0FE41BA
:101BE00041F470014FF0000070BD41F0FE4141F43E
:101BF000780170BD70B54FF0FF0C4CF4E06C1CEA3E
:101C000011541DBF1CEA135594EA0C0F95EA0C0FF2
:101C100000F0A7F8A4EB050481EA030E52EA0335AD
:101C20004FEA013100F088804FEA03334FF08055CE
:101C300045EA131343EA12634FEA022245EA1115FB
:101C400045EA10654FEA00260EF000419D4208BFAC
:101C5000964244F1FD0404F5407402D25B084FEA59
:101C60003202B61A65EB03055B084FEA32024FF405
:101C700080104FF4002CB6EB020E75EB030E22BF62
:101C8000B61A754640EA0C005B084FEA3202B6EB22
:101C9000020E75EB030E22BFB61A754640EA5C00D1
:101CA0005B084FEA3202B6EB020E75EB030E22BF61
:101CB000B61A754640EA9C005B084FEA3202B6EB62
:101CC000020E75EB030E22BFB61A754640EADC0021
:101CD00055EA060E18D04FEA051545EA16754FEA83
:101CE00006164FEAC30343EA52734FEAC2025FEAA1
:101CF0001C1CC0D111F4801F0BD141EA00014FF030
:101D000000004FF0004CB6E711F4801F04BF014300
:101D10000020B4F1FD0C88BFBCF5E06F3FF6AFAE1C
:101D2000B5EB030C04BFB6EB020C5FEA500C50F1AC
:101D3000000041EB045170BD0EF0004E4EEA11312F
:101D400014EB5C04C2BFD4EB0C0541EA045170BD36
:101D500041F480114FF0000E013C90E645EA060E7A
:101D60008DE60CEA135594EA0C0F08BF95EA0C0FA8
:101D70003FF43BAF94EA0C0F0AD150EA01347FF4F0
:101D800034AF95EA0C0F7FF425AF104619462CE7C7
:101D900095EA0C0F06D152EA03353FF4FDAE10462A
:101DA000194622E750EA410618BF52EA43067FF47B
:101DB000C5AE50EA41047FF40DAF52EA43057FF40B
:101DC000EBAE12E74FF0FF3C06E000BF4FF0010C16
:101DD00002E000BF4FF0010C4DF804CD4FEA410C7A
:101DE0007FEA6C5C4FEA430C18BF7FEA6C5C1BD047
:101DF00001B050EA410C0CBF52EA430C91EA030FC8
:101E000002BF90EA020F0020704710F1000F91EA24
:101E1000030F58BF994208BF90422CBFD8176FEAF2
:101E2000E37040F0010070474FEA410C7FEA6C5CC0
:101E300002D150EA013C07D14FEA430C7FEA6C5CC7
:101E4000D6D152EA033CD3D05DF8040B704700BFF3
:101E50008446104662468C461946634600E000BF41
:101E600001B5FFF7B7FF002848BF10F1000F01BD13
:101E70004DF808EDFFF7F4FF0CBF012000205DF8DE
:101E800008FB00BF4DF808EDFFF7EAFF34BF012063
:101E900000205DF808FB00BF4DF808EDFFF7E0FFFC
:101EA00094BF012000205DF808FB00BF4DF808ED4D
:101EB000FFF7CEFF94BF012000205DF808FB00BFB4
:101EC0004DF808EDFFF7C4FF34BF012000205DF896
:101ED00008FB00BF4FEA410C7FEA6C5C02D150EA7C
:101EE000013C0AD14FEA430C7FEA6C5C02D152EA12
:101EF000033C02D14FF0000070474FF001007047E3
:101F00004FEA410212F5001215D211D56FF4787321
:101F1000B3EB625212D94FEAC12343F0004343EAC4
:101F2000505311F0004F23FA02F018BF404270479F
:101F30004FF00000704750EA013005D111F0004029
:101F400008BF6FF0004070474FF00000704700BFBF
:101F50004FEA4102B2F1E04324BFB3F5001CDCF1CB
:101F6000FE5C0DD901F0004C4FEAC0024CEA507003
:101F7000B2F1004F40EB830008BF20F00100704732
:101F800011F0804F21D113F13872BCBF01F0004035
:101F9000704741F480114FEA5252C2F11802C2F167
:101FA000200C10FA0CF320FA02F018BF40F00100E8
:101FB0004FEAC1234FEAD32303FA0CFC40EA0C009A
:101FC00023FA02F34FEA4303CCE77FEA625307D1D7
:101FD00050EA01331EBF4FF0FE4040F4400070470E
:101FE00001F0004040F0FE4040F40000704700BFA8
:101FF00053B94AB9002908BF00281CBF4FF0FF3170
:102000004FF0FF3000F07EB9ADF1080C6DE904CE61
:1020100000F006F8DDF804E0DDE9022304B07047C3
:102020002DE9F0478C460E460446089D002B50D102
:102030008A4217466CD9B2FA82FEBEF1000F0BD06D
:10204000CEF1200420FA04F401FA0EF644EA060C5C
:1020500002FA0EF700FA0EF44FEA1749220CBCFB05
:10206000F9F01FFA87F809FB10C642EA064600FBA2
:1020700008F3B34209D9F61900F1FF3280F022814A
:10208000B34240F21F8102383E44F61AA2B2B6FBB8
:10209000F9F309FB136642EA064403FB08F8A0457E
:1020A00009D9E41903F1FF3280F00A81A04540F21A
:1020B0000781023B3C44C8EB040443EA0040002192
:1020C000002D62D024FA0EF400232C606B60BDE872
:1020D000F0878B4207D9002D55D0002185E84100BB
:1020E0000846BDE8F087B3FA83F1002940F09080FC
:1020F000B34202D3824200F2F880841A66EB0306F0
:102100000120B446002D40D085E81010BDE8F087CE
:1021100012B90127B7FBF2F7B7FA87FEBEF1000F3D
:1021200035D1F31B4FEA17481FFA87FC0121B3FB97
:10213000F8F0220C08FB103642EA06460CFB00F3CE
:10214000B34207D9F61900F1FF3202D2B34200F2CE
:10215000CE801046F61AA2B2B6FBF8F308FB13665F
:1021600042EA06440CFB03FCA44507D9E41903F139
:10217000FF3202D2A44500F2B5801346CCEB040432
:1021800043EA00409CE729462846BDE8F087CEF1A7
:10219000200106FA0EF307FA0EF720FA01F94FEACA
:1021A0001748CE4049EA0309B6FBF8FA4FEA19444A
:1021B00008FB1A661FFA87FC44EA06430AFB0CF286
:1021C0009A4200FA0EF40AD9DB190AF1FF3180F0C5
:1021D00087809A4240F28480AAF1020A3B449B1A0B
:1021E0001FFA89F9B3FBF8F108FB113349EA0343FD
:1021F00001FB0CF69E4207D9DB1901F1FF326BD2CD
:102200009E4269D902393B449B1B41EA0A418EE751
:10221000C1F1200E22FA0EF48B40234320FA0EF770
:1022200006FA01F44FEA134C26FA0EF63C43B6FBCD
:10223000FCF9270C0CFB19661FFA83F847EA0646DF
:1022400009FB08F7B74202FA01F200FA01FA08D9CD
:10225000F61809F1FF3041D2B7423FD9A9F102097E
:102260001E44F61BA0B2B6FBFCF40CFB146640EA5D
:10227000064704FB08F8B84507D9FF1804F1FF30FA
:1022800028D2B84526D9023C1F4444EA0940C8EB8D
:102290000707A0FB02894F4544464E4614D329D078
:1022A00065B3BAEB040367EB060707FA0EFECB40F3
:1022B000CF404EEA030385E888000021BDE8F0879F
:1022C0001346F8E61046E0E6B8EB020469EB0306B5
:1022D0000138E5E70446D8E7114695E78146C0E7AF
:1022E0008A467CE7023B3C4448E708460AE7023856
:1022F0003E442FE7C245E7D33E46D1E72946BDE835
:10230000F08700BF704700BF08B508F0D9F8FDF7A7
:10231000D5FFFEE7002103E00B4B5B58435004312F
:102320000A480B4B42189A42F6D30A4A02E00023AD
:1023300042F8043B084B9A42F9D3FDF7F1FF00F055
:102340000FF8FFF7E1FF7047E0B900080000002038
:10235000EC080020EC0800204C0A0020FEE70000FA
:1023600070B50F4E0F4D761BB61018BF002405D068
:10237000013455F8043B9847A642F9D10A4E0B4D5B
:10238000761BFDF733FFB61018BF002406D00134CA
:1023900055F8043B9847A642F9D170BD70BD00BF07
:1023A000E0B90008E0B90008E0B90008E0B90008A9
:1023B0000EB400B582B003AB816853F8042B0193CF
:1023C00001F0CAFB02B05DF804EB03B0704700BF38
:1023D0000FB400B5074983B004AB086853F8042B69
:1023E0008168019301F0B8FB03B05DF804EB04B021
:1023F000704700BF500400200CB4F0B59DB022AC73
:10240000029154F8042B069123466FF000454FF4D7
:1024100002774FF6FF7602A90194ADF81470049587
:102420000795ADF8166000F02FF8029B00221A7095
:102430001DB0BDE8F04002B0704700BF0EB4F0B56B
:102440009CB021AB0F4953F8042B019305466FF064
:102450000044086802954FF402774FF6FF7602A910
:102460000695ADF8147004940794ADF8166000F06A
:102470000BF8029B00221A701CB0BDE8F04003B0BC
:10248000704700BF500400202DE9F04FC1B00C464A
:10249000059115460A93069004F0C8FA0368139351
:1024A0001846FEF7ADFAA38912901E0603D52369DC
:1024B000002B01F030819FEDA67B00238DED107B7A
:1024C0000E932593249315930793DFF890A230ABD6
:1024D00023939946A84698F800304446EBB1252B43
:1024E00002D11AE0252B03D014F8013F002BF9D1BB
:1024F000C8EB04058DB1249B259AC9F800800133EF
:102500002A44072BC9F804502592249300F3A6808F
:1025100009F10809079B2B4407932378002B00F04F
:10252000A68000231A468DF86F301946089303934E
:102530004FF0FF3B637804F101085D4608F10108A4
:10254000A3F12000582800F23484DFE810F0A00343
:1025500032043204A8033204320432043204320456
:102560003204AF03BD0332045D00E200320409010E
:1025700010011001100110011001100110011001D3
:1025800010013204320432043204320432043204C0
:1025900032043204320420018602320486023204FC
:1025A000320432043204D40232043204E50232042A
:1025B00032043204320432040F03320432043D0385
:1025C000320432043204320432043204320432045B
:1025D000320432047E039103860286028602990346
:1025E000910332043204070432041204A30064008D
:1025F000C2033204C9033204EA0332043204F20390
:1026000008980A9340420890039B43F00403039305
:1026100098F8003092E70A98AB46002104688DF8DC
:102620006F10071D0398302378228B458DF870308A
:102630004FF000058DF8712040F00203C0F2D68300
:1026400020F0800343F00203039354EA05030A9742
:1026500000F0A2830F460D923F48E6E223AA0599B7
:10266000069805F059FA48B90DF1C00952E7259BC3
:1026700023B10698059923AA05F04EFA059B9B897C
:1026800013F0400F079B18BF4FF0FF33184641B0BF
:10269000BDE8F08F0D93AB46002A41F03482039AD7
:1026A00012F0200300F046820A9F073727F0070345
:1026B000002703F10801BB450A91D3E900458DF8D5
:1026C0006F70C0F2588722F08003039354EA050329
:1026D00000F0848330AEE20842EA4572E90804F073
:1026E00007030D461446303354EA050206F8013D4F
:1026F000F1D1039AD10740F18F80302B00F08C800C
:102700003022731E06F8012C30AAD21A09921E46F6
:1027100085E098F800302A2B08F1010401F0D981F6
:10272000A3F13000092898BF002501F27B8114F83D
:10273000013B05EB850500EB4505A3F130000928B9
:10274000F5D945EAE575A046FAE600BFAFF300808B
:102750000000000000000000DCB70008FCB7000823
:10276000039B43F08003039398F80030E6E6A3F15F
:10277000300000231C4618F8013B04EB840400EBF6
:102780004404A3F130000928F5D90894D8E60D9344
:10279000AB46002A41F0B381039B43F0100303933F
:1027A000039B9C0640F137850A9F073727F00707F0
:1027B000D7E9002307F108010A9114461D46002AB3
:1027C00073F10003C0F26285BBF1000F9DF86F70DA
:1027D000C0F23F85039B23F08003039354EA050373
:1027E00000F0E881002D08BF0A2CC0F0E88130AE6F
:1027F000204629460A220023FFF7FAFB303206F86A
:10280000012D2046294600230A22FFF7F1FB04464A
:102810000D4654EA0503EBD130AB9B1B0993099B92
:102820005B45B8BF5B46049300230F9317B1049B2D
:1028300001330493039B13F002030B9302D0049B18
:1028400002330493039B13F084030C9340F0DB8268
:10285000089B049A9D1A002D40F3D582102D2599CE
:10286000249AA84F27DD149648461024B946059EA1
:102870002F46069D04E0103F102F00F1080016DDE2
:102880000132A04B24921031072A259180E81800CC
:10289000F1DD23AA3146284605F03EF900287FF4F1
:1028A000EDAE103F102F2599249A30A8E8DC149E35
:1028B0003D464F46814601326C18072A25942492E2
:1028C000C9F80070C9F8045000F32D849DF86F70AA
:1028D00009F1080977B1249B013301340DF16F012F
:1028E0000122072B2594249389E8060000F3A58391
:1028F00009F108090B9B6BB1249B013302341CA91D
:102900000222072B2594249389E8060000F3A18373
:1029100009F108090C9B802B00F0E182099BC3EBB5
:102920000B07002F33DD784A249B0B92102F22DDFA
:1029300022464FF0100B069D059C04E0103F102F1F
:1029400009F1080916DD01331032072B2592249373
:1029500089E8000CF2DD23AA2146284605F0DCF8C0
:1029600000287FF48BAE103F102F259A249B0DF189
:10297000C009E8DC144601330B9A24933C44072B2E
:10298000259489E8840000F34C8309F10809039B2E
:10299000DA0500F13A82249B0999C9F800600133F5
:1029A0000C44072B2594C9F80410249300F32383C7
:1029B00009F10809039B59073FD5089B049A9D1A02
:1029C000002D3ADD102D249B4E4F23DD224610268C
:1029D000DDF818B0059C04E0103D102D09F1080940
:1029E00017DD0133474924931032072B259289E8DC
:1029F0004200F1DD23AA2146584605F08DF8002853
:102A00007FF43CAE103D102D259A249B0DF1C0099A
:102A1000E7DC144601332C44072B25942493C9F892
:102A20000070C9F8045008DD23AA0599069805F03E
:102A300073F800287FF422AE259C079B089A04991E
:102A40008A42ACBF9B185B180793002C40F0DF82D2
:102A5000002324930DF1C0093DE50D93AB46002AF8
:102A600041F04980039B0A9F1A0707F1070740F1CD
:102A7000658527F0070393ED007B8DED107B03F157
:102A800008020A92DDE9101222F000431691179312
:102A9000DDE916454FF0FF32204629461B4BFFF774
:102AA00019FA002840F0CB844FF0FF32174B204634
:102AB0002946FFF7F1F9002840F0C18400220023E5
:102AC000DDE91001FFF7DEF9002840F033879DF8BB
:102AD0006F700F4E0F4B039921F0800103910D99F8
:102AE00003224FF0000B04924729D8BF1E460992DB
:102AF000CDF83CB09AE6039B43F00803039398F8A3
:102B000000301BE5A8B70008FCB70008FFFFEF7F07
:102B1000BCB70008B8B700080D93AB46002A40F0D8
:102B2000E687039B43F010030393039A12F02003FC
:102B30007FF4BAAD039911F0100200F00A850A98EB
:102B40008DF86F30BBF1000F046800F104074FF0FF
:102B50000005C0F20F850A4622F08002039254EA73
:102B600005020A9700F03A811F46B3E50D93AB4684
:102B7000002A40F0D487039B43F010030393039A89
:102B800012F0200300F02C830A9F073727F0070379
:102B9000002703F10801BB450A91D3E900458DF8F0
:102BA0006F70C0F2568322F08003039354EA05034A
:102BB0007FF418AEBBF1000F00F0F580002440AEAA
:102BC000303406F8414D27E60D93AB46002A40F01D
:102BD000A287039BAF489D0640F1B5800A9F073747
:102BE00027F00703D3E9004503F108020A92039A8C
:102BF00012F0010700F0398254EA050300F0E8847E
:102C00009DF834208DF871200027039A8DF86F709D
:102C10003023BB458DF8703042F00203C0F292863B
:102C200022F0800343F00203039330AE230904F043
:102C30000F0143EA05732A091C461546435C06F852
:102C4000013D54EA0503F1D1E6E50A990D930A68BE
:102C50008DF8982000230A461F468DF86F30043205
:102C600001230493BB460F970A92099326AEE1E530
:102C70000D93AB46002A3FF493AD8DF86F108FE5AE
:102C8000039B43F04003039398F8003056E498F810
:102C9000003000297FF452AC012220214EE4039B36
:102CA00043F00103039398F8003047E40A9C23683B
:102CB000089318460028234603F10403FFF6A0AC4E
:102CC0000A9398F8003039E498F8003001222B215B
:102CD00034E4039B43F02003039398F800302DE481
:102CE0000A9A0D93166800248DF86F40171D002E68
:102CF00000F00286002DC0F271852A46214630463A
:102D0000FDF716FC002800F04786831B0993A346B5
:102D100023EAE3730A970493CDF83CB09DF86F70F3
:102D200084E50D93AB46002A3FF429AF8DF86F1070
:102D300025E70D93AB46002A40F00387039B5648D6
:102D40009D063FF54BAF039BDC0640F153830A9A87
:102D50001346043314680A93002548E798F80030B6
:102D60006C2B00F0B684039840F010000390FFF73E
:102D7000E5BB002A40F0E186039B9B0640F14883B7
:102D80000A9A07991368CD170846043229460A9211
:102D9000C3E90001FFF79FBB3F480D92BBF1000F55
:102DA00040F074815F464FF0000BCDF824B030AE98
:102DB00035E50D93002A40F0AA860D9A002A3FF4CB
:102DC00056AC002301211F4604918DF898208DF800
:102DD0006F309B460F93099126AE2BE5BBF1000F98
:102DE00000F0038600270024002573E42A4803939B
:102DF0000D9254EA05030A974FF000077FF415AFD0
:102E00000024002511E7259C64E50D9B652B40F30C
:102E1000AA8000220023DDE91001FFF729F800282D
:102E200000F03681249B1D4AC9F80020013301348B
:102E30000122072B25942493C9F8042000F3D4839E
:102E400009F108091D9B0E9A934203DB039BDB07E4
:102E50007FF5B0AD249B1299139AC9F80020013375
:102E60000C44072B2594C9F80410249300F33B84E9
:102E700009F108090E9B5D1E002D7FF79BAD084AE6
:102E8000249B0B92102D40F3E9811026069FDDF85C
:102E900014B00DE0C8B70008DCB70008F8B70008A8
:102EA000FCB7000809F10809103D102D40F3D68148
:102EB00001331034072B25942493C9F800A0C9F8D6
:102EC0000460EFDD23AA5946384604F025FE0028A9
:102ED0007FF4D4AB259C249B0DF1C009E4E7089B4B
:102EE000049A9F1A002F7FF719ADBC4A249B0B92BE
:102EF000102F2BDD4A462146B94610253746069C41
:102F0000059E06E0A9F11009B9F1100F02F10802BF
:102F100018DD01331031072B25912493C2F800A04E
:102F20005560EFDD23AA3146204604F0F5FD002868
:102F30007FF4A4ABA9F11009B9F1100F2599249BD6
:102F400030AAE6DC3E460C464F46914601330B9ACA
:102F500024933C44072B259489E8840000F33D82A8
:102F600009F10809DAE40E9B249D012B40F30A8243
:102F7000013501340123072D25942495C9F80060FB
:102F8000C9F8043000F30F8209F10809129A139B63
:102F9000C9F8003001351444072D25942495C9F84B
:102FA000042000F30D8209F1080900230022DDE965
:102FB0001001FEF75DFF0E9B002840F0C380013B2F
:102FC000013501361C44072D24952594C9F800606D
:102FD000C9F8043000F3F58009F10809159AC9F819
:102FE0000420013514441FAB072D25942495C9F8FE
:102FF00000307FF7DDAC23AA0599069804F08CFD1C
:1030000000287FF43BAB259C0DF1C009D2E423AA34
:103010000599069804F080FD00283FF419ADFFF7EC
:103020002DBB23AA0599069804F076FD00287FF4AD
:1030300025AB259C0DF1C009A9E423AA05990698A2
:1030400004F06AFD00287FF419AB259C0DF1C0093E
:1030500050E423AA0599069804F05EFD00287FF449
:103060000DAB259C0DF1C00954E4BBF1000F8DF8A8
:103070006F70C0F21A8322F08003039354EA0503B1
:103080007FF4D3ADBBF1000F3FF48CAE0027B7E661
:103090001D9D002D40F3B6820F9B0E9A9342A8BF50
:1030A0001346002B1D460DDD249BC9F8006001333B
:1030B0002C44072B2594C9F80450249300F39F83D4
:1030C00009F108090F9B002DA8BF5B1B002B1D46B3
:1030D00040F3F880414A249B0B92102D40F36B8201
:1030E00022461027DDF818B0059C05E009F1080913
:1030F000103D102D40F35E8201331032072B2592D4
:103100002493C9F800A0C9F80470EFDD23AA214672
:10311000584604F001FD00287FF4B0AA259A249BAC
:103120000DF1C009E4E723AA0599069804F0F4FC20
:1031300000287FF4A3AA9DF86F70259C0DF1C009AB
:10314000FFF7C8BB5E1E002E7FF748AF234B0B93E3
:10315000102E2CDDCDF824801027B046DDF818B0F5
:10316000059E06E0A8F11008B8F1100F09F1080952
:103170001ADD01351034072D25942495C9F800A0D7
:10318000C9F80470EEDD23AA3146584604F0C4FCA9
:1031900000287FF473AAA8F11008B8F1100F259C3D
:1031A000249D0DF1C009E4DC4646DDF824800B9B2C
:1031B00001353444072D2594249589E848007FF78C
:1031C0000BAF23AA0599069804F0A6FC00287FF40B
:1031D00055AA259C249D0DF1C009FFE6FCB7000807
:1031E000039911F0100200F0C9810A988DF86F3030
:1031F000BBF1000F046800F104074FF0000526DB67
:103200000A4622F08002039254EA05020A971F46FA
:103210007FF4E8AACEE4039BD8062AD4039B590680
:1032200027D50A99B1F900400431E51722462B460B
:103230000A91FFF7C4BA0A998DF86F30BBF1000FFD
:103240000C6801F104074FF0000580F240820A97F4
:103250001F4654EA05037FF4C5AAB0E401330B9A74
:1032600024932C44072B259489E824007FF7A0ABF6
:10327000C1E60A9A146813460433E51722460A93F6
:10328000002A2B4673F10003BFF69EAA64424FF05A
:103290002D0765EB4505BBF1000F8DF86F70FFF64C
:1032A000A1AA039B23F080030393FFF79BBA23AAF1
:1032B0000599069804F030FC00287FF4DFA9259CCE
:1032C0000DF1C0090F9A1D9B324417460E9A934286
:1032D00047DB039AD50744D40E990E44F51BCB1A4D
:1032E0009D42A8BF1D46002D2E460DDD249AC9F82B
:1032F000007001322C44072A2594C9F80450249206
:1033000000F3098309F10809002EACBF9D1B1D467F
:10331000002D7FF74FABBA4A249B0B92102D9DDDF9
:103320001026069FDDF814B004E009F10809103DED
:10333000102D93DD01331034072B25942493C9F805
:1033400000A0C9F80460F0DD23AA5946384604F00D
:10335000E3FB00287FF492A9259C249B0DF1C00972
:10336000E5E7249A12981399C9F800100132044431
:10337000072A2594C9F80400249200F3AA8209F1CF
:103380000809A9E7039BD8073FF5F2AD01350134E1
:103390000123072D25942495C9F80060C9F804304D
:1033A0007FF71AAE0DE723AA0599069804F0B4FB3F
:1033B00000287FF463A9259C249D0DF1C009E5E553
:1033C00023AA0599069804F0A7FB00287FF456A9C4
:1033D000259C249D0DF1C009E7E523AA05990698CF
:1033E00004F09AFB00287FF449A9259C0DF1C0093F
:1033F000FFF794BA0A9A039B13F0400F134603F1A8
:1034000004030CBF146814880A930025FFF7EFBB70
:10341000039BDF060BD4039B5E0608D50A9A13684C
:1034200004320A92BDF81C201A80FFF754B80A9A99
:10343000136804320A92079A1A60FFF74CB8DDE964
:10344000100102460B46FEF745FD002840F00F83B1
:103450000D9BBBF1FF3F23F0200700F07082472F48
:1034600000F09081119B039A002B42F480720B9222
:10347000C0F27C829DED107B8DED187B00230493C0
:103480000D9B662B00F06182462B00F05381452F87
:103490000CBF0BF101055D4621AA1EAB0192009302
:1034A0002A461DAB02219DED180B069802F018F874
:1034B0000D9B672B064640F07A82039BDA0740F1AA
:1034C000C682741900220023DDE91801FEF7D0FC42
:1034D000002840F09281219B9C4206D930215A1C41
:1034E00021921970219B9C42F9D89B1B472F0E9368
:1034F00000F07C810D9B652B40F368820D9B662B51
:103500001D9B0F9300F064820F9A0E998A42C0F2BD
:103510003682039BD90700F1918222EAE273099275
:1035200067220D92049A002A40F04E8104930B9B6F
:10353000039393469DF86F70FFF778B927F007075C
:1035400097ED007B07F108038DED107B0A93FFF7E1
:1035500099BA039911F0400300F0AA800A988DF8F7
:103560006F20BBF1000F048800F104074FF0000545
:1035700080F2C6800A970027FFF7ACB8039911F0D4
:1035800040033FF458AE0A988DF86F20BBF1000F4E
:10359000048800F104074FF00005C0F2F98021F023
:1035A0008003039354EA05030A9717467FF41AA988
:1035B000FFF700BB144601330B9A24932C44072BCE
:1035C000259489E824003FF772AE09F1080979E6ED
:1035D0000027BB458DF86F70FFF612AC039B23F0FC
:1035E00080030393FFF7DABB23AA0599069804F03A
:1035F00093FA00287FF442A8259C0DF1C00921E42C
:10360000FCB70008249BB94AC9F8002001330134F3
:103610000122072B25942493C9F8042000F3A580E8
:1036200009F108092DB90E9B1BB9039BDF077FF534
:10363000C1A9249B1299139AC9F8002001330C44A4
:10364000072B2594C9F80410249300F3DD8109F1B8
:1036500008096D42002D40F3AA80A54A0B92102D57
:1036600040F3DA8022461027DDF818B0059C05E00B
:1036700009F10809103D102D40F3CD8001331032BF
:10368000072B25922493C9F800A0C9F80470EFDD38
:1036900023AA2146584604F03FFA00287EF4EEAFF4
:1036A000259A249B0DF1C009E4E70A9FFFF7A1BB0F
:1036B0000A998DF86F30BBF1000F0C6801F1040717
:1036C0004FF00005FFF656AF039AFFF745BA039A8D
:1036D00097E5039B43F02003039308F1010898F852
:1036E0000030FEF72BBF23AA0599069804F014FAC0
:1036F00000287EF4C3AF259C0DF1C009FFF7BABBCB
:1037000021F08003039354EA05030A973FF466AB64
:103710001746FEF7DFBF4021069803F00BFA059A23
:1037200010601061002800F0FE81059A402353616B
:10373000FEF7C1BE21AA1EAB019200935A461DABF3
:1037400003219DED180B069801F0CAFE5D46064662
:103750000D9B462B06EB05047FF4B4AE3378302B7B
:1037600000F077811D9D2C44ACE623AA05990698AC
:1037700004F0D2F900287EF481AF1D9D259C0DF147
:10378000C0094FE7BBF1000F08BF4FF0010B69E61E
:103790000A9717465DE523AA0599069804F0BCF937
:1037A00000287EF46BAF259C249B0DF1C0090E9977
:1037B000C9F8006001330C44072B25942493C9F801
:1037C00004107FF7F5A816E42D2704930B9B0393B1
:1037D0008DF86F704FF0000BFFF729B83046FDF7FA
:1037E0000FF9A34603460990FFF792BA1D9BDD1C13
:1037F0001EDB9B451CDB0F9386E6234675E623AA5A
:103800000599069804F088F900287EF437AF259CC6
:103810000DF1C00956E4144601330B9A24932C444D
:10382000072B259489E82400B5DC09F10809BEE7D7
:103830000D9A023A0D92013B002B9DF834201D9306
:10384000B8BF5B428DF87C20B4BF2D222B22092B00
:103850008DF87D2040F3EA800DF18B000446254A67
:1038600082FB0321DA17C2EBA10202EB8201A3EB78
:10387000410303F13001092A134604F8011DEEDC6F
:1038800021463033DAB201F8012D884240F25281EC
:103890000DF17E01234601E013F8012B01F8012B05
:1038A0009842F9D1431C1B1B0DF17E0213441FAA41
:1038B0009B1A0E9A1593012A1344099340F3E6804C
:1038C000099B129A1344002209930F9223EAE3738F
:1038D00028E623AA0599069804F01EF900287EF42C
:1038E000CDAE1D9B259C0DF1C009F5E4F8B700088D
:1038F000FCB7000867666666062D2B4628BF0623C0
:10390000099323EAE373B3460A970F963746049365
:103910008E4EFEF78BBF23AA0599069804F0FCF89B
:1039200000287EF4ABAE1D9B0E9A259CD31A0DF198
:10393000C009E9E42D278DF86F70FFF7CAB84FF082
:10394000060B8FE50393FFF770B921AA1EAB019216
:1039500000935A461DAB03219DED180B069801F00C
:10396000BFFD5D46064600EB0B04F7E6DDE91012ED
:1039700002F1004319932D231891049380E5129AC4
:103980000E9B13440F9A0993002A40F38980672203
:1039900023EAE3730D92C5E525EAE5730A970493DC
:1039A000099583460F909DF86F70FEF73FBF0D9B02
:1039B000472B7FF486AD039BDB073FF5C9AE219B08
:1039C000472FA3EB06030E933FF410AF1D9B32E786
:1039D000002B6DDDBBF1000F4FD1039AD4074CD4FF
:1039E0001A46099223EAE3739CE5039BDB075F46D3
:1039F00005D540AE302306F8413DFEF70DBFCDF8AA
:103A000024B030AEFEF70BBF23AA0599069804F048
:103A100083F800287EF432AE1D9D259C249B0DF179
:103A2000C00916E6A0460025FEF78ABD30333022D5
:103A30008DF87F308DF87E2020AB38E7129A0F9BEF
:103A40001344672209930D9223EAE3736AE5219BED
:103A50004BE500220023DDE91801FEF709FA0028F2
:103A60007FF480AEC5F101051D952C442AE5384E42
:103A7000384B9DF86F70FFF72EB80F9B129A9D1868
:103A800005EB0B03099323EAE3734BE5039B13F068
:103A900001037FF415AF0F93099B23EAE37341E51C
:103AA0000F9B099AC3F101031A44134609926EE76A
:103AB000BBF1000F02D1039BD80707D5129B5D1CF9
:103AC00005EB0B03099323EAE3732BE50123099329
:103AD00028E50A9898F8013005680430002D0A900E
:103AE000A046BEF62BAD4FF0FF35FEF727BD8DF893
:103AF0006F10FFF716B88DF86F10FEF7B3BF8DF893
:103B00006F10FEF749BE8DF86F10FEF7C8BD8DF837
:103B10006F10FFF752B98DF86F10FFF75AB88DF894
:103B20006F10FFF728B8069A0C2313604FF0FF3090
:103B3000FEF7ADBD0DF17E03B9E68DF86F10FFF70E
:103B40001BB98DF86F10FFF7F9B800BFF0B7000888
:103B5000C4B70008C0B700082DE9F04FC1B01C463B
:103B6000049116460546069002F060FF0368139321
:103B70001846FCF745FF0A9412901DB1AB6B002B61
:103B800000F023810498B0F90C2093B2990407D473
:103B9000416E42F4005321F40051838141669BB28F
:103BA0001A0740F1DD80049A1269002A00F0D880DB
:103BB00003F01A030A2B00F0E1809FED877B0023BE
:103BC0008DED107B0E932593249315930793DFF8C7
:103BD00014A230AB23939946B04698F8003044467F
:103BE000EBB1252B02D11AE0252B03D014F8013FAD
:103BF000002BF9D1C8EB04058DB1249B259AC9F897
:103C0000008001332A44072BC9F8045025922493DD
:103C100000F3C28009F10809079B2B44079323781E
:103C2000002B00F0C28000231A468DF86F30194631
:103C3000089303934FF0FF3B637804F101085D465E
:103C400008F10108A3F12000582800F25984DFE8A8
:103C500010F00F045704570418045704570457046E
:103C60005704570457046203490457045D000901CF
:103C70005704250170037003700370037003700311
:103C80007003700370035704570457045704570414
:103C90005704570457045704570480039D035704DF
:103CA0009D035704570457045704EB035704570464
:103CB0002C0157045704570457045704550157045F
:103CC0005704B402570457045704570457045704C1
:103CD0005704570457045704F5020F039D039D032F
:103CE0009D033F030F035704570446035704500333
:103CF000CB0064002004570428045704F20357043F
:103D00005704FA0308980A9340420890039B43F033
:103D10000403039398F8003092E70A98AB46002119
:103D200004688DF86F10071D0398302378228B45A7
:103D30008DF870304FF000058DF8712040F00203CF
:103D4000C0F2FB8320F0800343F00203039354EAA4
:103D500005030A9700F0CC830F460D9220485DE2E0
:103D60000499069801F0C4FA002841F03C80049BB5
:103D70009B8903F01A030A2B7FF41FAF0499B1F952
:103D80000E30002BFFF619AF23463246069801F09D
:103D900079FA41B0BDE8F08F23AA0499069804F09F
:103DA000A5FD48B90DF1C00936E7259B23B106985A
:103DB000049923AA04F09AFD049B9B89590601F1FA
:103DC0001280079841B0BDE8F08F069802F056FCCB
:103DD000D8E600BFAFF30080000000000000000044
:103DE000DCB700081CB800080D93AB46002A41F070
:103DF0001C82039A12F0200364D00A9F073727F031
:103E00000703002703F10801BB450A91D3E90045E8
:103E10008DF86F70C0F2B88622F08003039354EAE5
:103E2000050300F0828330AEE20842EA4572E908F9
:103E300004F007030D461446303354EA050206F831
:103E4000013DF1D1039AD20740F19680302B00F06A
:103E500093803022731E06F8012C30AAD21A0992E0
:103E60001E468CE098F800302A2B08F1010401F07E
:103E7000AE81A3F13000092898BF002501F25E81D0
:103E800014F8013B05EB850500EB4505A3F1300077
:103E90000928F5D945EAE575A046D3E6039B43F02A
:103EA0008003039398F80030CAE60D93AB46002ACE
:103EB00041F0B481039B43F010030393039A12F083
:103EC00020039AD1039911F0100200F034860A9869
:103ED0008DF86F30BBF1000F046800F104074FF05C
:103EE0000005C0F250860A4622F08002039254EA8E
:103EF00005020A9700F019831F4694E70D93AB461D
:103F0000002A41F0AA81039B43F010030393039A14
:103F100012F0200300F0FA840A9F073727F0070306
:103F2000002703F10801BB450A91D3E900458DF84C
:103F30006F70C0F2238522F08003039354EA0503D7
:103F400000F0BC81002D08BF0A2CC0F01B8530AEEC
:103F5000204629460A220023FEF74AF8303206F8A6
:103F6000012D2046294600230A22FEF741F8044687
:103F70000D4654EA0503EBD130AB9B1B0993099B1B
:103F80005B45B8BF5B46059300230F9317B1059BB4
:103F900001330593039B13F002030B9302D0059B9F
:103FA00002330593039B13F084030C9340F0D282F9
:103FB000089B059A9D1A002D40F3CC82102D25995F
:103FC000249AA84F27DD149648461024B946049E2B
:103FD0002F46069D04E0103F102F00F1080016DD6B
:103FE0000132A04B24921031072A259180E8180055
:103FF000F1DD23AA3146284604F078FC00287FF43E
:10400000DBAE103F102F2599249A30A8E8DC149ECF
:104010003D464F46814601326C18072A259424926A
:10402000C9F80070C9F8045000F328849DF86F7037
:1040300009F1080977B1249B013301340DF16F01B7
:104040000122072B2594249389E8060000F3A0831E
:1040500009F108090B9B6BB1249B013302341CA9A5
:104060000222072B2594249389E8060000F39C8301
:1040700009F108090C9B802B00F0D082099BC3EB4F
:104080000B07002F33DD784A249B0B92102F22DD83
:1040900022464FF0100B069D049C04E0103F102FA9
:1040A00009F1080916DD01331032072B25922493FC
:1040B00089E8000CF2DD23AA2146284604F016FC0C
:1040C00000287FF479AE103F102F259A249B0DF124
:1040D000C009E8DC144601330B9A24933C44072BB7
:1040E000259489E8840000F3478309F10809039BBC
:1040F000DD0500F13182249B0999C9F80060013384
:104100000C44072B2594C9F80410249300F31E8354
:1041100009F10809039B58073FD5089B059A9D1A8A
:10412000002D3ADD102D249B4E4F23DD2246102614
:10413000DDF818B0049C04E0103D102D09F10809C9
:1041400017DD0133474924931032072B259289E864
:104150004200F1DD23AA2146584604F0C7FB00289F
:104160007FF42AAE103D102D259A249B0DF1C00935
:10417000E7DC144601332C44072B25942493C9F81B
:104180000070C9F8045008DD23AA0499069804F0C9
:10419000ADFB00287FF410AE259C079B089A05997B
:1041A0008A42ACBF9B185B180793002C40F0DA8260
:1041B000002324930DF1C0090FE50D93AB46002AAF
:1041C00041F04780039B29489C0640F146810A9FA5
:1041D000073727F00703D3E9004503F108020A92E5
:1041E000039A12F0010700F0EB8254EA050300F095
:1041F0007F859DF834208DF871200027039A8DF873
:104200006F703023BB458DF8703042F00203C0F26E
:10421000248722F0800343F00203039330AE230986
:1042200004F00F0143EA05732A091C461546435C56
:1042300006F8013D54EA0503F1D19DE60A990D9374
:104240000A688DF8982000230A461F468DF86F30C3
:10425000043201230593BB460F970A92099326AEB9
:1042600098E600BF0CB800081CB80008C8B70008E2
:104270000D93AB46002A40F0C987039B9B0674D57B
:104280000A9F073727F00707D7E9002307F108013E
:104290000A9114461D46002A73F10003C0F23A84C5
:1042A000BBF1000F9DF86F70C0F26883039B23F091
:1042B0008003039354EA05037FF444AEBBF1000F7F
:1042C00040F008844FF0000BCDF824B030AE56E635
:1042D000039B43F04003039398F80030B0E498F850
:1042E00000306C2B00F0C885039840F0100003905C
:1042F000A6E4002A40F08E87039B9F0640F1E184EC
:104300000A9A07991368CD170846043229460A927B
:10431000C3E9000161E40A9C236808931846002859
:10432000234603F10403FFF6EDAC0A9398F800303E
:1043300086E4A3F1300000231C4618F8013B04EB8F
:10434000840400EB4404A3F130000928F5D9089453
:1043500078E40D93AB46002A40F07387039B43F04B
:1043600010030393039B9B068AD4039BDF0600F193
:104370009482039B5E0640F190820A99B1F9004055
:104380000431E51722462B460A9184E70D93AB468C
:10439000002A40F04E87039B0A9F1D0707F107077D
:1043A00040F1848427F0070393ED007B8DED107BB3
:1043B00003F108020A92DDE9101222F0004316917F
:1043C0001793DDE916454FF0FF3220462946B54BDD
:1043D000FDF780FD002840F0EA834FF0FF32B14B3B
:1043E00020462946FDF758FD002840F0E0830022D2
:1043F0000023DDE91001FDF745FD002840F025868A
:104400009DF86F70A84EA94B039921F0800103918C
:104410000D9903224FF0000B05924729D8BF1E4685
:104420000992CDF83CB0B1E5039B43F00803039338
:1044300098F8003004E40D93AB46002A3FF467ADD2
:104440008DF86F1063E50D93AB46002A40F0FD86B2
:10445000039B97489C063FF5BAAE039BD90640F1F3
:1044600096830A9A1346043314680A930025B7E624
:1044700098F8003000297FF4E3AB01222021FFF7F8
:10448000DFBB039B43F00103039398F80030FFF771
:10449000D7BB039B43F02003039398F80030FFF74A
:1044A000CFBB0A9A0D93166800248DF86F40171D34
:1044B000002E00F0A385002DC0F218852A46214663
:1044C0003046FCF735F8002800F00086831B09937E
:1044D000A34623EAE3730A970593CDF83CB09DF811
:1044E0006F7053E598F8003001222B21FFF7A8BB2D
:1044F0006F480D92BBF1000F40F073815F46E1E61B
:104500000D93002A40F099860D9A002A3FF44DAC95
:10451000002301211F4605918DF898208DF86F30FA
:104520009B460F93099126AE34E5BBF1000F00F0D6
:10453000BE8500270024002575E45D4803930D9295
:1045400054EA05030A974FF000077FF467AE002492
:10455000002563E6259C6DE50D9B652B40F3AE8041
:1045600000220023DDE91001FDF782FC002800F0A5
:104570003A81249B4F4AC9F80020013301340122BB
:10458000072B25942493C9F8042000F3CB8309F169
:1045900008091D9B0E9A934203DB039BD8077FF506
:1045A000B9AD249B1299139AC9F8002001330C4429
:1045B000072B2594C9F80410249300F3678409F1AC
:1045C00008090E9B5D1E002D7FF7A4AD3A4A249B7F
:1045D0000B92102D40F3B4811026069FDDF810B029
:1045E00005E009F10809103D102D40F3A9810133C0
:1045F0001034072B25942493C9F800A0C9F804604F
:10460000EFDD23AA5946384604F070F900287FF4FC
:10461000D3AB259C249B0DF1C009E4E7089B059AC8
:104620009F1A002F7FF72AAD234A249B0B92102F4D
:104630002BDD4A462146B94610253746069C049E86
:1046400006E0A9F11009B9F1100F02F1080218DD16
:1046500001331031072B25912493C2F800A0556037
:10466000EFDD23AA3146204604F040F900287FF40C
:10467000A3ABA9F11009B9F1100F2599249B30AA19
:10468000E6DC3E460C464F46914601330B9A249396
:104690003C44072B259489E8840000F32B8209F120
:1046A0000809EBE4FFFFEF7FBCB70008B8B70008CC
:1046B000DCB70008F8B700081CB800080E9B249D62
:1046C000012B40F3D081013501340123072D2594BE
:1046D0002495C9F80060C9F8043000F3E18109F1BC
:1046E0000809129A139BC9F8003001351444072DAC
:1046F00025942495C9F8042000F3DF8109F1080905
:1047000000230022DDE91001FDF7B2FB0E9B00281B
:1047100040F0CC80013B013501361C44072D249527
:104720002594C9F80060C9F8043000F3AC8109F1A0
:104730000809159AC9F80420013514441FAB072D48
:1047400025942495C9F800307FF7E2AC23AA049998
:10475000069804F0CBF800287FF42EAB259C0DF1D1
:10476000C009D7E423AA0499069804F0BFF80028EA
:104770003FF41EADFFF720BB23AA0499069804F06E
:10478000B5F800287FF418AB259C0DF1C009AEE404
:1047900023AA0499069804F0A9F800287FF40CAB2A
:1047A000259C0DF1C00955E423AA0499069804F04C
:1047B0009DF800287FF400AB259C0DF1C00959E459
:1047C000BBF1000F8DF86F70C0F20A8322F08003F6
:1047D000039354EA05037FF421ADBBF1000F3FF4CE
:1047E0008DAE0027B3E61D9D002D40F3A7820F9BE1
:1047F0000E9A9342A8BF1346002B1D460DDD249B45
:10480000C9F8006001332C44072B2594C9F80450E3
:10481000249300F37C8309F108090F9B002DA8BFA6
:104820005B1B002B1D4640F3BE80B94A249B0B92B4
:10483000102D40F36A8222461027DDF818B0049C40
:1048400005E009F10809103D102D40F35D820133A8
:104850001032072B25922493C9F800A0C9F80470E0
:10486000EFDD23AA2146584604F040F800287FF4E3
:10487000A3AA259A249B0DF1C009E4E723AA049971
:10488000069804F033F800287FF496AA9DF86F701C
:10489000259C0DF1C009FFF7CDBB0A9A1468134699
:1048A0000433E5170A9322462B46F4E45E1E002EDD
:1048B0007FF73FAF964B0B93102E40F31081CDF84E
:1048C00024801027B046DDF818B0049E07E009F1F7
:1048D0000809A8F11008B8F1100F40F3FD80013568
:1048E0001034072D25942495C9F800A0C9F8047048
:1048F000EDDD23AA3146584603F0F8FF00287FF487
:104900005BAA259C249D0DF1C009E2E7039911F0F3
:10491000100220D00A988DF86F30BBF1000F0468A8
:1049200000F104074FF0000526DB0A4622F0800262
:10493000039254EA05020A971F467FF403ABBDE4D5
:1049400001330B9A24932C44072B259489E82400E7
:104950007FF7DEABFAE6039911F0400340F047829F
:104960000A998DF86F30BBF1000F0C6801F1040754
:104970004FF0000580F219810A971F4654EA05039B
:104980007FF4E0AA40AE303406F8414DFFF7F4BAA8
:1049900023AA0499069803F0A9FF00287FF40CAA23
:1049A000259C0DF1C0090F9A1D9B324417460E9AA3
:1049B000934247DB039AD20744D40E990E44F51B69
:1049C000CB1A9D42A8BF1D46002D2E460DDD249A10
:1049D000C9F8007001322C44072A2594C9F8045004
:1049E000249200F3238309F10809002EACBF9D1B1C
:1049F0001D46002D7FF78EAB454A249B0B92102D50
:104A00009EDD1026069FDDF810B004E009F10809CC
:104A1000103D102D94DD01331034072B2594249381
:104A2000C9F800A0C9F80460F0DD23AA5946384649
:104A300003F05CFF00287FF4BFA9259C249B0DF1A7
:104A4000C009E5E7249A12981399C9F800100132B9
:104A50000444072A2594C9F80400249200F37082C4
:104A600009F10809A9E7039BDF073FF52CAE0135E3
:104A700001340123072D25942495C9F80060C9F855
:104A800004307FF754AE23AA0499069803F02EFF52
:104A900000287FF491A9259C249D0DF1C00948E6CA
:104AA00023AA0499069803F021FF00287FF484A923
:104AB000259C249D0DF1C00913E623AA04990698AC
:104AC00003F014FF00287FF477A9259C249D0DF1A5
:104AD000C00915E6002455E74646DDF824800B9B07
:104AE00001353444072D2594249589E848007FF743
:104AF0001EAEC8E723AA0499069803F0F7FE002823
:104B00007FF45AA9259C0DF1C009FFF7B7BA00BF81
:104B10001CB8000864424FF02D0765EB4505BBF15A
:104B2000000F8DF86F70FFF60DAA039B23F0800332
:104B30000393FFF707BA039911F0400315D00A98C1
:104B40008DF86F20BBF1000F048800F104074FF0CF
:104B5000000518DB21F08003039354EA05030A974C
:104B60003FF4E3AC1746FFF75EB90A998DF86F3052
:104B7000BBF1000F0C6801F104074FF0000502DBE8
:104B8000039AFFF7B1B90A970027FFF74CB90A9AC1
:104B9000039B13F0400F134603F104030CBF14688A
:104BA00014880A930025FFF71BBB039ABEE6DDE9D4
:104BB000100102460B46FDF78DF9002840F0D8821F
:104BC0000D9BBBF1FF3F23F0200700F04382472FEE
:104BD00000F04C81119B039A002B42F480720B92DF
:104BE000C0F24F829DED107B8DED187B0023059365
:104BF0000D9B662B00F03482462B00F00F81452F71
:104C00000CBF0BF101055D4621AA1EAB019200937A
:104C10002A461DAB02219DED180B069800F060FCA2
:104C20000D9B672B064640F06A82039BDA0740F132
:104C30009D82741900220023DDE91801FDF718F99F
:104C4000002840F06281219B9C4206D930215A1CE9
:104C500021921970219B9C42F9D89B1B472F0E93E0
:104C600000F04C810D9B652B40F358820D9B662B09
:104C70001D9B0F9300F035820F9A0E998A42C0F265
:104C80000982039BDB0700F1608222EAE27309924A
:104C900067220D92059A002A40F01E8105930B9B16
:104CA000039393469DF86F70FFF770B927F00707DD
:104CB00097ED007B07F108038DED107B0A93FFF75A
:104CC0007ABB039BDE060BD4039B5D0608D50A9ACC
:104CD000136804320A92BDF81C201A80FEF77DBFCB
:104CE0000A9A136804320A92079A1A60FEF775BF8F
:104CF0000027BB458DF86F70FFF629AC039B23F0AE
:104D000080030393FFF7F6BB144601330B9A2493F9
:104D10002C44072B259489E824003FF739AE09F18C
:104D2000080940E623AA0499069803F0DFFD00284D
:104D30007FF442A8259C0DF1C0092AE4249BB74AC0
:104D4000C9F80020013301340122072B2594249354
:104D5000C9F804207DDC09F108092DB90E9B1BB9A7
:104D6000039BD9077FF5D6A9249B1299139AC9F8FA
:104D7000002001330C44072B2594C9F80410249318
:104D800000F3CE8109F108096D42002D40F39780B0
:104D9000A34A0B92102D40F3C78022461027DDF85E
:104DA00018B0049C05E009F10809103D102D40F3EE
:104DB000BA8001331032072B25922493C9F800A042
:104DC000C9F80470EFDD23AA2146584603F08EFD92
:104DD00000287EF4F1AF259A249B0DF1C009E4E789
:104DE0000A9FFFF7ADBB4FF0FF30FEF7EBBF0A980D
:104DF0008DF86F20BBF1000F048800F104074FF01D
:104E00000005C0F29F8121F08003039354EA05035B
:104E10000A9717467FF496A8FFF750BA21AA1EAB4F
:104E2000019200935A461DAB03219DED180B069885
:104E300000F056FB5D4606460D9B462B06EB05042F
:104E40007FF4F8AE3378302B00F0A1811D9D2C4407
:104E5000F0E623AA0499069803F048FD00287EF4A2
:104E6000ABAF1D9D259C0DF1C00976E7BBF1000F8E
:104E700008BF4FF0010BADE6039B43F02003039303
:104E800008F1010898F80030FEF7DABE23AA049969
:104E9000069803F02BFD00287EF48EAF259C0DF1C3
:104EA000C009FFF78EBB23AA0499069803F01EFDE4
:104EB00000287EF481AF259C249B0DF1C0090E993A
:104EC000C9F8006001330C44072B25942493C9F8DA
:104ED00004107FF71DA939E42D2705930B9B03933D
:104EE0008DF86F704FF0000BFFF751B83046FBF7AD
:104EF00087FDA34603460990FFF7EBBA1D9BD81C1C
:104F00002BDB9B4529DB0F93B6E62346A5E623AAB8
:104F10000499069803F0EAFC00287EF44DAF259C26
:104F20000DF1C00979E4144601330B9A24932C4403
:104F3000072B259489E82400B5DC09F10809BEE7B0
:104F400023AA0499069803F0D1FC00287EF434AF1C
:104F50001D9B259C0DF1C0092FE50D9A023A0D927B
:104F6000013B002B9DF834201D93B8BF5B428DF8A8
:104F70007C20B4BF2D222B22092B8DF87D2040F3FD
:104F8000ED800DF18B000446264A82FB0321DA17DF
:104F9000C2EBA10202EB8201A3EB410303F130015A
:104FA000092A134604F8011DEEDC21463033DAB23B
:104FB00001F8012D884240F235810DF17E01234632
:104FC00001E013F8012B01F8012B9842F9D1431CA1
:104FD0001B1B0DF17E0213441FAA9B1A0E9A1593F8
:104FE000012A1344099340F3E880099B129A134461
:104FF000002209930F9223EAE3734BE6062D2B461A
:1050000028BF0623099323EAE373B3460A970F9652
:1050100037460593044EFEF7B9BF00BFF8B7000846
:105020001CB8000867666666F0B7000823AA0499F2
:10503000069803F05BFC00287EF4BEAE1D9B0E9A22
:10504000259CD31A0DF1C009CFE42D278DF86F7080
:10505000FFF7D8B94FF0060BBCE50393FFF7DEB8B6
:1050600021AA1EAB019200935A461DAB03219DED70
:10507000180B069800F034FA5D46064600EB0B0468
:10508000E0E6DDE9101202F1004319932D23189197
:105090000593ADE5129A0E9B13440F9A0993002ACB
:1050A00040F38380672223EAE3730D92F2E5039BCA
:1050B000DB075F4605D540AE302306F8413DFEF7DD
:1050C0005BBFCDF824B030AEFEF759BF25EAE573DB
:1050D0000A970593099583460F909DF86F70FEF728
:1050E00055BF002B40F38180BBF1000F46D1039ADE
:1050F000D10743D41A46099223EAE373CAE50D9B0C
:10510000472B7FF496AD039BDC073FF595AE219BC3
:10511000472FA3EB06030E933FF4F0AE1D9B1FE752
:1051200023AA0499069803F0E1FB00287EF444AE1C
:105130001D9D259C249B0DF1C00925E6A046002558
:10514000FEF780BD0A97174618E4129A0F9B134486
:10515000672209930D9223EAE3739BE530333022F3
:105160008DF87F308DF87E2020AB35E7219B74E5EC
:105170003C4E3D4B9DF86F70FFF746B90F9B129A5E
:105180009D1805EB0B03099323EAE37382E50022E4
:105190000023DDE91801FCF76BFE00287FF456AE12
:1051A000C5F101051D952C4444E50F9B099AC3F1F7
:1051B00001031A441346099274E7039B13F0010399
:1051C0007FF413AF0F93099B23EAE37362E50A9818
:1051D00098F8013005680430002D0A90A046BEF60C
:1051E0002FAD4FF0FF35FEF72BBDBBF1000F02D105
:1051F000039BDA0707D5129B5D1C05EB0B03099394
:1052000023EAE37346E50123099343E58DF86F1024
:10521000FFF733B88DF86F10FFF76EB88DF86F1089
:10522000FEF748BE0DF17E03D6E68DF86F10FEF74F
:10523000E0BD8DF86F10FFF7AEB88DF86F10FFF777
:1052400063B98DF86F10FFF789B88DF86F10FFF70D
:10525000FFB88DF86F10FEF7B5BF8DF86F10FEF731
:1052600052BE00BFC4B70008C0B7000810B4044C59
:1052700013460A46014620685DF8044BFEF76CBCF5
:1052800050040020F0B50C46ADF26C4D8989666E75
:10529000E589199621F00201666AADF80E500025E5
:1052A000E769ADF80C10099606951AAE4FF48065C3
:1052B0006946009604960295059507970646FEF7FF
:1052C0004BFC051E07DB3046694601F0C7F8002895
:1052D00018BF4FF0FF35BDF80C305B0603D5A3892E
:1052E00043F04003A38128460DF26C4DF0BD00BF92
:1052F00038B5304B1B6805460C4613B19A6B002A33
:1053000038D0B4F90C2093B218070CD52069A8B195
:1053100013F001021ED0636900225B42A361A26008
:10532000F0B1002038BDD9063CD5580726D42069F5
:1053300042F00803A3819BB20028E9D103F4207254
:10534000B2F5007FE4D02846214601F0AFFBA389E7
:105350002069DDE7990758BF6269A2600028E0D1A3
:10536000B4F90C301A06DDD543F04003A3814FF0A9
:10537000FF3038BD184601F081F9C2E7216B51B109
:1053800004F14003994204D0284601F0E7F9B4F94A
:105390000C200023236300232069636022F0240291
:1053A0002060C5E742F0400209232B604FF0FF3038
:1053B000A28138BD5004002002690B69934200F3BA
:1053C0008D802DE9F04F03F1FF3801F1140700F152
:1053D000140B57F828205BF828304FEA880483B074
:1053E0000132B3FBF2F90BEB0403009407EB040A60
:1053F0000193B9F1000F39D00025BC46DE462B469B
:105400005CF8046BDEF80020B4B209FB0455360CDE
:105410002C0C09FB0644ADB25B1BA6B213FA82F357
:10542000C6EB124606EB23469BB243EA0643E2452F
:105430004EF8043B4FEA14454FEA2643E0D2009B66
:105440005BF8033093B9019C231F9B450CD254F8A1
:10545000043C4BB9A4F1080302E01A68043B1AB9F2
:105460009B4508F1FF38F8D3C0F81080044602F0DD
:10547000BFF800282EDB09F101095D46002357F82B
:10548000041B28688AB29A1A090C12FA80F2C1EB3E
:10549000104303EB224391B241EA0341BA4545F878
:1054A000041B4FEA2343EAD25BF828200BEB880366
:1054B00082B91A1F93450BD253F8042C42B9083B0A
:1054C00002E01A68043B1AB99B4508F1FF38F8D38B
:1054D000C4F81080484603B0BDE8F08F0020704744
:1054E0002DE9F04F57EC106B9BB0046C249D00919C
:1054F00081460592039310EE10AABB4654B1426C4C
:10550000626001239340A360214601F043FE002323
:10551000C9F84030BBF1000F5C4634DB00232B6040
:10552000A14B1A462340934216D000220023504636
:105530005946FCF79DFC56465F46804648B3039AA1
:1055400001231360259B002B00F0BE809748186054
:1055500001381BB0BDE8F08F039A42F20F7313605D
:10556000BAF1000F00F09A809148259B002BF0D0F3
:10557000C378002B00F0AA8000F10803259A13607D
:105580001BB0BDE8F08F01232BF000442B60A34635
:10559000C6E718AA19A947EC106B484602F066F94D
:1055A000250D0A9040F08380189D199E2E4406F226
:1055B0003243202B40F38882C3F1400306F21240AD
:1055C0009C402AFA00F02043FCF774F90123741E72
:1055D000A1F1F8710F930022764BFCF72DF86CA324
:1055E000D3E90023FCF7DCF96BA3D3E90023FCF734
:1055F00025F8064620460F46FCF76CF968A3D3E968
:105600000023FCF7CDF902460B4630463946FCF73D
:1056100015F806460F46FCF773FC002204900023A1
:1056200030463946FCF72EFC002840F02882049EC4
:10563000162E00F22182604B03EBC603D3E9000172
:1056400052465B46FCF73CFC002800F04282731E89
:10565000049300230D932D1BB5F1010800F12A825C
:1056600000230793049B002BC0F21B8298440C93E9
:1056700000230693009B092B2AD8052B40F3448670
:10568000043B00930026009B023B032B00F2238681
:10569000DFE813F02B03240236035004444B474A3F
:1056A000C4F31300002814BF184610465DE7CBF37F
:1056B000130343F07F51A5F2FF345046CDF83C80F0
:1056C00041F44011189D86E73D4842E7C31C55E769
:1056D0000021C9F8441048460C46009101F034FD01
:1056E0004FF0FF3308930E9301230990C9F840004F
:1056F00005940B93199B002BC0F2D080049A0E2ABC
:1057000000F3CC802C4B03EBC20393ED007B059B95
:10571000002B8DED007BC0F2FE8256465F46DDE930
:1057200000AB304652465B463946FCF763FAFCF75D
:10573000E7FB0446FCF7CEF852465B46FCF730F92F
:105740000B46024639463046FBF776FF099D04F1C9
:1057500030032B70089B012B06460F4605F101050F
:1057600061D00022174BFCF71BF9002200230646EC
:105770000F46FCF77DFB00287DD1CDF81490DDF8B5
:1057800020A0DDF824B0DDE9008928E0AFF3008037
:1057900061436F63A787D23FB3C8608B288AC63F37
:1057A000FB799F501344D33F0000F07FF9B7000806
:1057B00038B800080000F83F60B800082CB80008AE
:1057C000F8B7000800002440FCF7EAF800220023A4
:1057D00006460F46FCF74CFB002840F0AE834246DD
:1057E0004B4630463946FCF705FAFCF789FB044680
:1057F000FCF770F842464B46FCF7D2F802460B46DF
:1058000030463946FBF718FF04F1300E05F801EB7E
:10581000CBEB050ED64506460F464FF00002AE4BC9
:10582000D2D1DDF8149032463B4630463946FBF77C
:1058300005FF06460F4602460B46DDE90001FCF770
:1058400021FB40B932463B46DDE90001FCF710FB85
:1058500088B1E3070FD515F8014C099A6B1E04E0D7
:105860009A4200F0FC8313F8014D392C03F1010535
:10587000F6D001341C700A99484601F08BFC0022D6
:10588000049B2A70039A01331360259B002B00F0C0
:105890009B8309981D601BB0BDE8F08F0B9A002A0E
:1058A00000F00E81009A012A40F35782089B069A65
:1058B0005F1EBA42C0F28B83D71B089B002BC0F23D
:1058C0008084079D089B079A01211A444846079245
:1058D000984401F043FD064665B1B8F1000F09DDBB
:1058E0004545079A2B46A8BF4346D21A0792ED1AA0
:1058F000C3EB0808069B002B40F3F5820B9A002AA5
:1059000000F00282002F00F0FF8131463A464846FF
:1059100001F0C6FD0A9A01460646484601F028FDF8
:105920000A990446484601F035FC069BDB1B0693AA
:1059300040F0E9810121484601F010FD0C9B0690E2
:10594000002B00F0158201461A46484601F0A8FDDA
:10595000009B0690012B40F3F3820027069A1369FF
:1059600002EB8303186901F0ABFCC0F12000404456
:1059700010F01F0000F0FA81C0F12003042B40F367
:10598000BD84C0F11C00079B034407930544804479
:10599000079B002B05DD21461A46484601F0D0FD45
:1059A0000446B8F1000F05DD42460699484601F06D
:1059B000C7FD06900D9B002B40F07A82089B002BC0
:1059C00040F393820B9B002B40F0F481DDF824B070
:1059D000089FDDF818805D4602E001F0E5FB044613
:1059E00041462046FFF7E8FC00F1300A05F801AB1C
:1059F000CBEB0503BB424FF00A024FF000032146F8
:105A00004846EADB099B089A012AACBF9B18013380
:105A10001D464FF0000B21460122484601F090FD43
:105A200006990A9001F0E4FD002840F3058315F87B
:105A3000012C09996B1E04E08B4200F0748213F86C
:105A4000012D392A03F10105F6D001321A700699A9
:105A5000484601F09FFB002E3FF40DAFBBF1000F55
:105A600005D0B34503D05946484601F093FB314673
:105A7000484601F08FFBFEE601230D93EBE5DDF8D0
:105A800010804046FBF726FF02460B46304639465B
:105A9000FCF7EEF900287FF4CAAD08F1FF33049358
:105AA000C5E5079A049BD21A5B420693002307922E
:105AB0000C93DFE5C8F1000307934FF00008D1E530
:105AC000069F079D0B9E07E7C3F120040AFA04F026
:105AD0007AE50D90BFE500BF0000244000230B9342
:105AE000049B059A13440E930133002B089340F353
:105AF0007D82089C25460021172DC9F844100BD93A
:105B0000012204235B0003F11400A842114602F1B4
